{
    "contractName": "XMozStaking",
    "abi": [
        {
            "inputs": [
                {
                    "internalType": "address",
                    "name": "_xMoz",
                    "type": "address"
                },
                {
                    "internalType": "uint256",
                    "name": "_startTime",
                    "type": "uint256"
                }
            ],
            "stateMutability": "nonpayable",
            "type": "constructor"
        },
        {
            "anonymous": false,
            "inputs": [
                {
                    "indexed": false,
                    "internalType": "address",
                    "name": "user",
                    "type": "address"
                }
            ],
            "name": "ClaimReward",
            "type": "event"
        },
        {
            "anonymous": false,
            "inputs": [
                {
                    "indexed": false,
                    "internalType": "uint256",
                    "name": "newTreasuryFeeBP",
                    "type": "uint256"
                }
            ],
            "name": "FeeSet",
            "type": "event"
        },
        {
            "anonymous": false,
            "inputs": [
                {
                    "indexed": true,
                    "internalType": "address",
                    "name": "previousOwner",
                    "type": "address"
                },
                {
                    "indexed": true,
                    "internalType": "address",
                    "name": "newOwner",
                    "type": "address"
                }
            ],
            "name": "OwnershipTransferred",
            "type": "event"
        },
        {
            "anonymous": false,
            "inputs": [
                {
                    "indexed": false,
                    "internalType": "uint256[]",
                    "name": "updatedRewardAmountsPerWeek",
                    "type": "uint256[]"
                }
            ],
            "name": "RewardAmountUpdated",
            "type": "event"
        },
        {
            "anonymous": false,
            "inputs": [
                {
                    "indexed": false,
                    "internalType": "address[]",
                    "name": "rewardTokens",
                    "type": "address[]"
                },
                {
                    "indexed": false,
                    "internalType": "uint256[]",
                    "name": "rewardAmountsPerWeek",
                    "type": "uint256[]"
                }
            ],
            "name": "SetRewardConfig",
            "type": "event"
        },
        {
            "anonymous": false,
            "inputs": [
                {
                    "indexed": false,
                    "internalType": "address[]",
                    "name": "skippedTokens",
                    "type": "address[]"
                }
            ],
            "name": "SetSkippedTokens",
            "type": "event"
        },
        {
            "anonymous": false,
            "inputs": [
                {
                    "indexed": false,
                    "internalType": "address",
                    "name": "user",
                    "type": "address"
                },
                {
                    "indexed": false,
                    "internalType": "uint256",
                    "name": "amount",
                    "type": "uint256"
                }
            ],
            "name": "Stake",
            "type": "event"
        },
        {
            "anonymous": false,
            "inputs": [
                {
                    "indexed": false,
                    "internalType": "address",
                    "name": "newTreasury",
                    "type": "address"
                }
            ],
            "name": "TreasurySet",
            "type": "event"
        },
        {
            "anonymous": false,
            "inputs": [
                {
                    "indexed": false,
                    "internalType": "address",
                    "name": "user",
                    "type": "address"
                },
                {
                    "indexed": false,
                    "internalType": "uint256",
                    "name": "amount",
                    "type": "uint256"
                }
            ],
            "name": "Unstake",
            "type": "event"
        },
        {
            "inputs": [],
            "name": "BP_DENOMINATOR",
            "outputs": [
                {
                    "internalType": "uint256",
                    "name": "",
                    "type": "uint256"
                }
            ],
            "stateMutability": "view",
            "type": "function"
        },
        {
            "inputs": [],
            "name": "MAX_FEE",
            "outputs": [
                {
                    "internalType": "uint256",
                    "name": "",
                    "type": "uint256"
                }
            ],
            "stateMutability": "view",
            "type": "function"
        },
        {
            "inputs": [],
            "name": "MAX_REWARD_LENGTH",
            "outputs": [
                {
                    "internalType": "uint256",
                    "name": "",
                    "type": "uint256"
                }
            ],
            "stateMutability": "view",
            "type": "function"
        },
        {
            "inputs": [
                {
                    "internalType": "address",
                    "name": "",
                    "type": "address"
                }
            ],
            "name": "accUnitPerShare",
            "outputs": [
                {
                    "internalType": "uint256",
                    "name": "",
                    "type": "uint256"
                }
            ],
            "stateMutability": "view",
            "type": "function"
        },
        {
            "inputs": [
                {
                    "internalType": "address",
                    "name": "",
                    "type": "address"
                },
                {
                    "internalType": "address",
                    "name": "",
                    "type": "address"
                }
            ],
            "name": "accumulatedRewardAmounts",
            "outputs": [
                {
                    "internalType": "uint256",
                    "name": "",
                    "type": "uint256"
                }
            ],
            "stateMutability": "view",
            "type": "function"
        },
        {
            "inputs": [
                {
                    "internalType": "address",
                    "name": "_rewardToken",
                    "type": "address"
                },
                {
                    "internalType": "uint256",
                    "name": "_rewardAmountPerWeek",
                    "type": "uint256"
                }
            ],
            "name": "addRewardToken",
            "outputs": [],
            "stateMutability": "nonpayable",
            "type": "function"
        },
        {
            "inputs": [
                {
                    "internalType": "address",
                    "name": "_account",
                    "type": "address"
                }
            ],
            "name": "balanceOf",
            "outputs": [
                {
                    "internalType": "uint256",
                    "name": "",
                    "type": "uint256"
                }
            ],
            "stateMutability": "view",
            "type": "function"
        },
        {
            "inputs": [],
            "name": "claimReward",
            "outputs": [],
            "stateMutability": "nonpayable",
            "type": "function"
        },
        {
            "inputs": [
                {
                    "internalType": "address",
                    "name": "token",
                    "type": "address"
                }
            ],
            "name": "claimRewardForToken",
            "outputs": [],
            "stateMutability": "nonpayable",
            "type": "function"
        },
        {
            "inputs": [
                {
                    "internalType": "address",
                    "name": "user",
                    "type": "address"
                }
            ],
            "name": "getClaimableAmounts",
            "outputs": [
                {
                    "components": [
                        {
                            "internalType": "address",
                            "name": "token",
                            "type": "address"
                        },
                        {
                            "internalType": "string",
                            "name": "name",
                            "type": "string"
                        },
                        {
                            "internalType": "string",
                            "name": "symbol",
                            "type": "string"
                        },
                        {
                            "internalType": "uint8",
                            "name": "decimals",
                            "type": "uint8"
                        },
                        {
                            "internalType": "uint256",
                            "name": "amount",
                            "type": "uint256"
                        }
                    ],
                    "internalType": "struct XMozStaking.RewardInfo[]",
                    "name": "",
                    "type": "tuple[]"
                }
            ],
            "stateMutability": "view",
            "type": "function"
        },
        {
            "inputs": [],
            "name": "getRewardAmounts",
            "outputs": [
                {
                    "components": [
                        {
                            "internalType": "address",
                            "name": "token",
                            "type": "address"
                        },
                        {
                            "internalType": "string",
                            "name": "name",
                            "type": "string"
                        },
                        {
                            "internalType": "string",
                            "name": "symbol",
                            "type": "string"
                        },
                        {
                            "internalType": "uint8",
                            "name": "decimals",
                            "type": "uint8"
                        },
                        {
                            "internalType": "uint256",
                            "name": "amount",
                            "type": "uint256"
                        }
                    ],
                    "internalType": "struct XMozStaking.RewardInfo[]",
                    "name": "",
                    "type": "tuple[]"
                }
            ],
            "stateMutability": "view",
            "type": "function"
        },
        {
            "inputs": [],
            "name": "getRewardAmountsPerWeek",
            "outputs": [
                {
                    "components": [
                        {
                            "internalType": "address",
                            "name": "token",
                            "type": "address"
                        },
                        {
                            "internalType": "string",
                            "name": "name",
                            "type": "string"
                        },
                        {
                            "internalType": "string",
                            "name": "symbol",
                            "type": "string"
                        },
                        {
                            "internalType": "uint8",
                            "name": "decimals",
                            "type": "uint8"
                        },
                        {
                            "internalType": "uint256",
                            "name": "amount",
                            "type": "uint256"
                        }
                    ],
                    "internalType": "struct XMozStaking.RewardInfo[]",
                    "name": "",
                    "type": "tuple[]"
                }
            ],
            "stateMutability": "view",
            "type": "function"
        },
        {
            "inputs": [],
            "name": "getRewardTokens",
            "outputs": [
                {
                    "internalType": "address[]",
                    "name": "",
                    "type": "address[]"
                }
            ],
            "stateMutability": "view",
            "type": "function"
        },
        {
            "inputs": [
                {
                    "internalType": "address",
                    "name": "",
                    "type": "address"
                },
                {
                    "internalType": "address",
                    "name": "",
                    "type": "address"
                }
            ],
            "name": "lastAccUnitPerShare",
            "outputs": [
                {
                    "internalType": "uint256",
                    "name": "",
                    "type": "uint256"
                }
            ],
            "stateMutability": "view",
            "type": "function"
        },
        {
            "inputs": [
                {
                    "internalType": "address",
                    "name": "",
                    "type": "address"
                }
            ],
            "name": "lastStakedTime",
            "outputs": [
                {
                    "internalType": "uint256",
                    "name": "",
                    "type": "uint256"
                }
            ],
            "stateMutability": "view",
            "type": "function"
        },
        {
            "inputs": [],
            "name": "lastUpdateTime",
            "outputs": [
                {
                    "internalType": "uint256",
                    "name": "",
                    "type": "uint256"
                }
            ],
            "stateMutability": "view",
            "type": "function"
        },
        {
            "inputs": [],
            "name": "owner",
            "outputs": [
                {
                    "internalType": "address",
                    "name": "",
                    "type": "address"
                }
            ],
            "stateMutability": "view",
            "type": "function"
        },
        {
            "inputs": [],
            "name": "renounceOwnership",
            "outputs": [],
            "stateMutability": "nonpayable",
            "type": "function"
        },
        {
            "inputs": [
                {
                    "internalType": "address",
                    "name": "",
                    "type": "address"
                }
            ],
            "name": "rewardAmountsPerWeek",
            "outputs": [
                {
                    "internalType": "uint256",
                    "name": "",
                    "type": "uint256"
                }
            ],
            "stateMutability": "view",
            "type": "function"
        },
        {
            "inputs": [
                {
                    "internalType": "uint256",
                    "name": "",
                    "type": "uint256"
                }
            ],
            "name": "rewardTokens",
            "outputs": [
                {
                    "internalType": "address",
                    "name": "",
                    "type": "address"
                }
            ],
            "stateMutability": "view",
            "type": "function"
        },
        {
            "inputs": [
                {
                    "internalType": "uint256",
                    "name": "_treasuryFeeBP",
                    "type": "uint256"
                }
            ],
            "name": "setFee",
            "outputs": [],
            "stateMutability": "nonpayable",
            "type": "function"
        },
        {
            "inputs": [
                {
                    "internalType": "address[]",
                    "name": "_rewardTokens",
                    "type": "address[]"
                },
                {
                    "internalType": "uint256[]",
                    "name": "_rewardAmountsPerWeek",
                    "type": "uint256[]"
                }
            ],
            "name": "setRewardConfig",
            "outputs": [],
            "stateMutability": "nonpayable",
            "type": "function"
        },
        {
            "inputs": [
                {
                    "internalType": "address[]",
                    "name": "_skippedTokens",
                    "type": "address[]"
                }
            ],
            "name": "setSkippedTokens",
            "outputs": [],
            "stateMutability": "nonpayable",
            "type": "function"
        },
        {
            "inputs": [
                {
                    "internalType": "address",
                    "name": "_treasury",
                    "type": "address"
                }
            ],
            "name": "setTreasury",
            "outputs": [],
            "stateMutability": "nonpayable",
            "type": "function"
        },
        {
            "inputs": [
                {
                    "internalType": "uint256",
                    "name": "",
                    "type": "uint256"
                }
            ],
            "name": "skippedTokens",
            "outputs": [
                {
                    "internalType": "address",
                    "name": "",
                    "type": "address"
                }
            ],
            "stateMutability": "view",
            "type": "function"
        },
        {
            "inputs": [
                {
                    "internalType": "uint256",
                    "name": "_amount",
                    "type": "uint256"
                }
            ],
            "name": "stake",
            "outputs": [],
            "stateMutability": "nonpayable",
            "type": "function"
        },
        {
            "inputs": [
                {
                    "internalType": "address",
                    "name": "",
                    "type": "address"
                }
            ],
            "name": "stakingInfo",
            "outputs": [
                {
                    "internalType": "uint256",
                    "name": "",
                    "type": "uint256"
                }
            ],
            "stateMutability": "view",
            "type": "function"
        },
        {
            "inputs": [],
            "name": "totalStakedAmount",
            "outputs": [
                {
                    "internalType": "uint256",
                    "name": "",
                    "type": "uint256"
                }
            ],
            "stateMutability": "view",
            "type": "function"
        },
        {
            "inputs": [
                {
                    "internalType": "address",
                    "name": "newOwner",
                    "type": "address"
                }
            ],
            "name": "transferOwnership",
            "outputs": [],
            "stateMutability": "nonpayable",
            "type": "function"
        },
        {
            "inputs": [],
            "name": "treasury",
            "outputs": [
                {
                    "internalType": "address",
                    "name": "",
                    "type": "address"
                }
            ],
            "stateMutability": "view",
            "type": "function"
        },
        {
            "inputs": [],
            "name": "treasuryFeeBP",
            "outputs": [
                {
                    "internalType": "uint256",
                    "name": "",
                    "type": "uint256"
                }
            ],
            "stateMutability": "view",
            "type": "function"
        },
        {
            "inputs": [
                {
                    "internalType": "uint256",
                    "name": "_amount",
                    "type": "uint256"
                }
            ],
            "name": "unstake",
            "outputs": [],
            "stateMutability": "nonpayable",
            "type": "function"
        },
        {
            "inputs": [
                {
                    "internalType": "uint256[]",
                    "name": "_rewardAmountsPerWeek",
                    "type": "uint256[]"
                }
            ],
            "name": "updateRewardAmountPerweek",
            "outputs": [],
            "stateMutability": "nonpayable",
            "type": "function"
        },
        {
            "inputs": [],
            "name": "withdraw",
            "outputs": [],
            "stateMutability": "nonpayable",
            "type": "function"
        },
        {
            "inputs": [],
            "name": "xMoz",
            "outputs": [
                {
                    "internalType": "address",
                    "name": "",
                    "type": "address"
                }
            ],
            "stateMutability": "view",
            "type": "function"
        }
    ],
    "bytecode": "60a06040523480156200001157600080fd5b506040516200326438038062003264833981016040819052620000349162000109565b6200003f33620000b9565b6001600160a01b0382166200009a5760405162461bcd60e51b815260206004820152601c60248201527f496e76616c69642072657761726420746f6b656e206164647265737300000000604482015260640160405180910390fd5b6001600160a01b038216608052620000b181600855565b505062000145565b600080546001600160a01b038381166001600160a01b0319831681178455604051919092169283917f8be0079c531659141344cd1fd0a4f28419497f9722a3daafe3b4186f6b6457e09190a35050565b600080604083850312156200011d57600080fd5b82516001600160a01b03811681146200013557600080fd5b6020939093015192949293505050565b6080516130e76200017d600039600081816102b901528181610fc70152818161115b015281816114a801526120cd01526130e76000f3fe608060405234801561001057600080fd5b50600436106102115760003560e01c80637bb7bed111610125578063bc063e1a116100ad578063d62a853a1161007c578063d62a853a14610490578063ee7da6ca146104a3578063f0f44260146104ab578063f2fde38b146104be578063f49538e5146104d157600080fd5b8063bc063e1a14610449578063c4f59f9b14610452578063c57a202c14610467578063c8f33c911461048757600080fd5b806394eecb50116100f457806394eecb50146103fd578063a129e9d21461041d578063a694fc3a14610425578063abe685cd14610438578063b88a802f1461044157600080fd5b80637bb7bed11461039b5780637f3b4592146103ae5780638da5cb5b146103c1578063911d823a146103d257600080fd5b80634f241810116101a8578063686eb69c11610177578063686eb69c1461032257806369fe0e2d146103425780636a0199521461035557806370a0823114610380578063715018a61461039357600080fd5b80634f241810146102b45780635008683b146102f3578063567e98f91461030657806361d027b31461030f57600080fd5b80633ccfd60b116101e45780633ccfd60b146102735780634505b4241461027b5780634850f5e91461028e5780634d25f57e146102a157600080fd5b806303b7ce70146102165780630d7fcd1a146102345780630e3802e91461024b5780632e17de7814610260575b600080fd5b61021e6104f1565b60405161022b9190612b3d565b60405180910390f35b61023d600c5481565b60405190815260200161022b565b61025e610259366004612c0c565b61082d565b005b61025e61026e366004612c36565b6109d6565b61025e610b4d565b61025e610289366004612c9b565b610c4d565b61025e61029c366004612cdd565b610c9f565b61025e6102af366004612c9b565b610de3565b6102db7f000000000000000000000000000000000000000000000000000000000000000081565b6040516001600160a01b03909116815260200161022b565b6102db610301366004612c36565b610eea565b61023d60055481565b600b546102db906001600160a01b031681565b61023d610330366004612d49565b60096020526000908152604090205481565b61025e610350366004612c36565b610f14565b61023d610363366004612d64565b600460209081526000928352604080842090915290825290205481565b61023d61038e366004612d49565b610fa3565b61025e611086565b6102db6103a9366004612c36565b61109a565b61025e6103bc366004612d49565b6110aa565b6000546001600160a01b03166102db565b61023d6103e0366004612d64565b600360209081526000928352604080842090915290825290205481565b61023d61040b366004612d49565b60016020526000908152604090205481565b61023d600a81565b61025e610433366004612c36565b6110e3565b61023d61271081565b61025e6112f5565b61023d6103e881565b61045a611353565b60405161022b9190612d97565b61023d610475366004612d49565b60026020526000908152604090205481565b61023d60085481565b61021e61049e366004612d49565b6113b5565b61021e611a6a565b61025e6104b9366004612d49565b611dea565b61025e6104cc366004612d49565b611e96565b61023d6104df366004612d49565b60076020526000908152604090205481565b60065460609060009067ffffffffffffffff81111561051257610512612de4565b60405190808252806020026020018201604052801561054b57816020015b610538612a3a565b8152602001906001900390816105305790505b50905060005b600654811015610827576006818154811061056e5761056e612dfa565b9060005260206000200160009054906101000a90046001600160a01b031682828151811061059e5761059e612dfa565b60209081029190910101516001600160a01b03909116905260068054829081106105ca576105ca612dfa565b600091825260209182902001546040805163313ce56760e01b815290516001600160a01b039092169263313ce567926004808401938290030181865afa158015610618573d6000803e3d6000fd5b505050506040513d601f19601f8201168201806040525081019061063c9190612e10565b82828151811061064e5761064e612dfa565b60200260200101516060019060ff16908160ff16815250506006818154811061067957610679612dfa565b6000918252602082200154604080516306fdde0360e01b815290516001600160a01b03909216926306fdde03926004808401938290030181865afa1580156106c5573d6000803e3d6000fd5b505050506040513d6000823e601f3d908101601f191682016040526106ed9190810190612e33565b8282815181106106ff576106ff612dfa565b6020026020010151602001819052506006818154811061072157610721612dfa565b6000918252602082200154604080516395d89b4160e01b815290516001600160a01b03909216926395d89b41926004808401938290030181865afa15801561076d573d6000803e3d6000fd5b505050506040513d6000823e601f3d908101601f191682016040526107959190810190612e33565b8282815181106107a7576107a7612dfa565b60200260200101516040018190525060076000600683815481106107cd576107cd612dfa565b60009182526020808320909101546001600160a01b03168352820192909252604001902054825183908390811061080657610806612dfa565b6020908102919091010151608001528061081f81612eeb565b915050610551565b50919050565b610835611f0c565b600654600a90610846906001612f04565b11156108b25760405162461bcd60e51b815260206004820152603060248201527f584d6f7a5374616b696e673a2065786365656420746865206d6178207265776160448201526f726420746f6b656e206e756d6265727360801b60648201526084015b60405180910390fd5b6000805b60065481101561091257836001600160a01b0316600682815481106108dd576108dd612dfa565b6000918252602090912001546001600160a01b0316036109005760019150610912565b8061090a81612eeb565b9150506108b6565b5080156109715760405162461bcd60e51b815260206004820152602760248201527f584d6f7a5374616b696e673a2072657761726420746f6b656e20616c726561646044820152661e48195e1a5cdd60ca1b60648201526084016108a9565b610979611f66565b5060068054600181019091557ff652222313e28459528d920b65115c16c04f3efc82aaedc97be59f3f377c0d3f0180546001600160a01b039093166001600160a01b03199093168317905560009182526007602052604090912055565b60008111610a325760405162461bcd60e51b815260206004820152602360248201527f584d6f7a5374616b696e673a20496e76616c696420756e7374616b6520616d6f6044820152621d5b9d60ea1b60648201526084016108a9565b610a3b336120ab565b33600090815260016020526040902054811115610aaa5760405162461bcd60e51b815260206004820152602760248201527f584d6f7a5374616b696e673a20496e73756666696369656e74207374616b656460448201526608185b5bdd5b9d60ca1b60648201526084016108a9565b610ab2611f66565b610aba6121b4565b3360009081526001602052604081208054839290610ad9908490612f17565b9091555050600554811115610aef576000610afd565b80600554610afd9190612f17565b600555610b0861229f565b610b1061230c565b60408051338152602081018390527f85082129d87b2fe11527cb1b3b7a520aeb5aa6913f88a3d8757fe40d1db02fdd91015b60405180910390a150565b610b55611f0c565b60005b600654811015610c4a57600060068281548110610b7757610b77612dfa565b6000918252602090912001546040516370a0823160e01b81523060048201526001600160a01b03909116906370a0823190602401602060405180830381865afa158015610bc8573d6000803e3d6000fd5b505050506040513d601f19601f82011682018060405250810190610bec9190612f2a565b9050610c37600b60009054906101000a90046001600160a01b03168260068581548110610c1b57610c1b612dfa565b6000918252602090912001546001600160a01b031691906123ab565b5080610c4281612eeb565b915050610b58565b50565b610c55611f0c565b610c61600a8383612a75565b507ffb35f0a2691ac601ac126f6de9c8c9539f6acca18f74e7b0ba480d95fa1c97628282604051610c93929190612f8a565b60405180910390a15050565b610ca7611f0c565b8281148015610cb65750600654155b8015610cc35750600a8311155b610d0f5760405162461bcd60e51b815260206004820152601b60248201527f584d6f7a5374616b696e673a20496e76616c6964206c656e677468000000000060448201526064016108a9565b610d17611f66565b610d2360068585612a75565b5060005b83811015610d9f57828282818110610d4157610d41612dfa565b9050602002013560076000878785818110610d5e57610d5e612dfa565b9050602002016020810190610d739190612d49565b6001600160a01b0316815260208101919091526040016000205580610d9781612eeb565b915050610d27565b507fa95ca19a220f79d2a835061862d1d47246ca028322e13080f37494f943c826e784848484604051610dd59493929190612fd0565b60405180910390a150505050565b610deb611f0c565b6006548114610e3c5760405162461bcd60e51b815260206004820152601b60248201527f584d6f7a5374616b696e673a20496e76616c6964206c656e677468000000000060448201526064016108a9565b610e44611f66565b60005b600654811015610eb857828282818110610e6357610e63612dfa565b905060200201356007600060068481548110610e8157610e81612dfa565b60009182526020808320909101546001600160a01b0316835282019290925260400190205580610eb081612eeb565b915050610e47565b507f240db5fbe2f419c49bec9974310882a44b453fabde4f0c453cc66b573a6c40488282604051610c93929190612ff7565b600a8181548110610efa57600080fd5b6000918252602090912001546001600160a01b0316905081565b610f1c611f0c565b6103e8811115610f6e5760405162461bcd60e51b815260206004820152601960248201527f584d6f7a5374616b696e673a2066656573203e206c696d69740000000000000060448201526064016108a9565b600c8190556040518181527f20461e09b8e557b77e107939f9ce6544698123aad0fc964ac5cc59b7df2e608f90602001610b42565b6040516370a0823160e01b81526001600160a01b03828116600483015260009182917f000000000000000000000000000000000000000000000000000000000000000016906370a0823190602401602060405180830381865afa15801561100e573d6000803e3d6000fd5b505050506040513d601f19601f820116820180604052508101906110329190612f2a565b6001600160a01b038416600090815260016020526040902054909150811061107c576001600160a01b0383166000908152600160205260409020546110779082612f17565b61107f565b60005b9392505050565b61108e611f0c565b6110986000612402565b565b60068181548110610efa57600080fd5b3360008181526003602090815260408083206001600160a01b038616845290915281208054919055906110df90839083612452565b5050565b6000811161113d5760405162461bcd60e51b815260206004820152602160248201527f584d6f7a5374616b696e673a20496e76616c6964207374616b6520616d6f756e6044820152601d60fa1b60648201526084016108a9565b611146336120ab565b6040516370a0823160e01b81523360048201527f00000000000000000000000000000000000000000000000000000000000000006001600160a01b0316906370a0823190602401602060405180830381865afa1580156111aa573d6000803e3d6000fd5b505050506040513d601f19601f820116820180604052508101906111ce9190612f2a565b336000908152600160205260409020546111e9908390612f04565b11156112475760405162461bcd60e51b815260206004820152602760248201527f584d6f7a5374616b696e673a20496e73756666696369656e74207374616b656460448201526620746f6b656e7360c81b60648201526084016108a9565b61124f611f66565b336000908152600160205260409020541561126c5761126c6121b4565b336000908152600260209081526040808320429055600190915281208054839290611298908490612f04565b9250508190555080600560008282546112b19190612f04565b909155506112bf905061229f565b60408051338152602081018390527febedb8b3c678666e7f36970bc8f57abf6d8fa2e828c0da91ea5b75bf68ed101a9101610b42565b6112fe336120ab565b611306611f66565b61130e6121b4565b61131661229f565b61131e61230c565b6040513381527f63e32091e4445d16e29c33a6b264577c2d86694021aa4e6f4dd590048f5792e89060200160405180910390a1565b606060068054806020026020016040519081016040528092919081815260200182805480156113ab57602002820191906000526020600020905b81546001600160a01b0316815260019091019060200180831161138d575b5050505050905090565b60065460609060009067ffffffffffffffff8111156113d6576113d6612de4565b6040519080825280602002602001820160405280156113ff578160200160208202803683370190505b5060065490915060009067ffffffffffffffff81111561142157611421612de4565b60405190808252806020026020018201604052801561145a57816020015b611447612a3a565b81526020019060019003908161143f5790505b50905060006008544261146d9190612f17565b9050600061147e62093a8083613021565b6005546040516370a0823160e01b81526001600160a01b03898116600483015292935090916000917f0000000000000000000000000000000000000000000000000000000000000000909116906370a0823190602401602060405180830381865afa1580156114f1573d6000803e3d6000fd5b505050506040513d601f19601f820116820180604052508101906115159190612f2a565b6001600160a01b03891660009081526001602052604090205490915081811115611553576115438282612f17565b61154d9084612f17565b92508190505b60005b60065481101561184f576006818154811061157357611573612dfa565b9060005260206000200160009054906101000a90046001600160a01b03168782815181106115a3576115a3612dfa565b60209081029190910101516001600160a01b03909116905260068054829081106115cf576115cf612dfa565b600091825260209182902001546040805163313ce56760e01b815290516001600160a01b039092169263313ce567926004808401938290030181865afa15801561161d573d6000803e3d6000fd5b505050506040513d601f19601f820116820180604052508101906116419190612e10565b87828151811061165357611653612dfa565b60200260200101516060019060ff16908160ff16815250506006818154811061167e5761167e612dfa565b6000918252602082200154604080516306fdde0360e01b815290516001600160a01b03909216926306fdde03926004808401938290030181865afa1580156116ca573d6000803e3d6000fd5b505050506040513d6000823e601f3d908101601f191682016040526116f29190810190612e33565b87828151811061170457611704612dfa565b6020026020010151602001819052506006818154811061172657611726612dfa565b6000918252602082200154604080516395d89b4160e01b815290516001600160a01b03909216926395d89b41926004808401938290030181865afa158015611772573d6000803e3d6000fd5b505050506040513d6000823e601f3d908101601f1916820160405261179a9190810190612e33565b8782815181106117ac576117ac612dfa565b602002602001015160400181905250600360008b6001600160a01b03166001600160a01b031681526020019081526020016000206000600683815481106117f5576117f5612dfa565b60009182526020808320909101546001600160a01b03168352820192909252604001902054875188908390811061182e5761182e612dfa565b6020908102919091010151608001528061184781612eeb565b915050611556565b5082158061185b575083155b1561186d575093979650505050505050565b60005b60065481101561196e5760006118c2600760006006858154811061189657611896612dfa565b60009182526020808320909101546001600160a01b03168352820192909252604001902054879061259e565b905060006118e7866118e1846c0c9f2c9cd04674edea4000000061259e565b906125b3565b9050600960006006858154811061190057611900612dfa565b60009182526020808320909101546001600160a01b0316835282019290925260400190205461192f9082612f04565b8a848151811061194157611941612dfa565b602002602001018181516119559190612f04565b905250829150611966905081612eeb565b915050611870565b5060005b600654811015611a5c5760006006828154811061199157611991612dfa565b60009182526020822001548a516001600160a01b0390911692508a90849081106119bd576119bd612dfa565b6020908102919091018101516001600160a01b03808f16600090815260048452604080822092871682529190935290912054909150611a176c0c9f2c9cd04674edea400000006118e1611a1085856125bf565b889061259e565b8a8581518110611a2957611a29612dfa565b6020026020010151608001818151611a419190612f04565b905250839250611a549150829050612eeb565b915050611972565b509498975050505050505050565b60065460609060009067ffffffffffffffff811115611a8b57611a8b612de4565b604051908082528060200260200182016040528015611ac457816020015b611ab1612a3a565b815260200190600190039081611aa95790505b50905060005b6006548110156108275760068181548110611ae757611ae7612dfa565b9060005260206000200160009054906101000a90046001600160a01b0316828281518110611b1757611b17612dfa565b60209081029190910101516001600160a01b0390911690526006805482908110611b4357611b43612dfa565b600091825260209182902001546040805163313ce56760e01b815290516001600160a01b039092169263313ce567926004808401938290030181865afa158015611b91573d6000803e3d6000fd5b505050506040513d601f19601f82011682018060405250810190611bb59190612e10565b828281518110611bc757611bc7612dfa565b60200260200101516060019060ff16908160ff168152505060068181548110611bf257611bf2612dfa565b6000918252602082200154604080516306fdde0360e01b815290516001600160a01b03909216926306fdde03926004808401938290030181865afa158015611c3e573d6000803e3d6000fd5b505050506040513d6000823e601f3d908101601f19168201604052611c669190810190612e33565b828281518110611c7857611c78612dfa565b60200260200101516020018190525060068181548110611c9a57611c9a612dfa565b6000918252602082200154604080516395d89b4160e01b815290516001600160a01b03909216926395d89b41926004808401938290030181865afa158015611ce6573d6000803e3d6000fd5b505050506040513d6000823e601f3d908101601f19168201604052611d0e9190810190612e33565b828281518110611d2057611d20612dfa565b60200260200101516040018190525060068181548110611d4257611d42612dfa565b6000918252602090912001546040516370a0823160e01b81523060048201526001600160a01b03909116906370a0823190602401602060405180830381865afa158015611d93573d6000803e3d6000fd5b505050506040513d601f19601f82011682018060405250810190611db79190612f2a565b828281518110611dc957611dc9612dfa565b60209081029190910101516080015280611de281612eeb565b915050611aca565b611df2611f0c565b6001600160a01b038116611e485760405162461bcd60e51b815260206004820152601c60248201527f584d6f7a5374616b696e673a20496e76616c696420616464726573730000000060448201526064016108a9565b600b80546001600160a01b0319166001600160a01b0383169081179091556040519081527f3c864541ef71378c6229510ed90f376565ee42d9c5e0904a984a9e863e6db44f90602001610b42565b611e9e611f0c565b6001600160a01b038116611f035760405162461bcd60e51b815260206004820152602660248201527f4f776e61626c653a206e6577206f776e657220697320746865207a65726f206160448201526564647265737360d01b60648201526084016108a9565b610c4a81612402565b6000546001600160a01b031633146110985760405162461bcd60e51b815260206004820181905260248201527f4f776e61626c653a2063616c6c6572206973206e6f7420746865206f776e657260448201526064016108a9565b600060085442611f769190612f17565b90506000611f8762093a8083613021565b90506000611f9862093a8084613035565b9050600554600003611fb657611fae8142612f17565b600855505050565b60055460005b60065481101561209757600061200e6007600060068581548110611fe257611fe2612dfa565b60009182526020808320909101546001600160a01b03168352820192909252604001902054869061259e565b9050600061202d846118e1846c0c9f2c9cd04674edea4000000061259e565b905080600960006006868154811061204757612047612dfa565b60009182526020808320909101546001600160a01b031683528201929092526040018120805490919061207b908490612f04565b925050819055505050808061208f90612eeb565b915050611fbc565b506120a28242612f17565b60085550505050565b6040516370a0823160e01b81526001600160a01b0382811660048301526000917f0000000000000000000000000000000000000000000000000000000000000000909116906370a0823190602401602060405180830381865afa158015612116573d6000803e3d6000fd5b505050506040513d601f19601f8201168201806040525081019061213a9190612f2a565b6001600160a01b0383166000908152600160205260409020549091508110156110df576001600160a01b038216600090815260016020526040902054612181908290612f17565b600560008282546121929190612f17565b90915550506001600160a01b0391909116600090815260016020526040902055565b60005b600654811015610c4a576000600682815481106121d6576121d6612dfa565b600091825260208083209091015433808452600183526040808520546001600160a01b0390931680865260098552818620549286526004855281862081875290945284205492945090929091906122486c0c9f2c9cd04674edea400000006118e161224186866125bf565b879061259e565b3360009081526003602090815260408083206001600160a01b038a168452909152812080549293508392909190612280908490612f04565b925050819055505050505050808061229790612eeb565b9150506121b7565b60005b600654811015610c4a576000600682815481106122c1576122c1612dfa565b60009182526020808320909101546001600160a01b0316808352600982526040808420543385526004845281852092855291909252912055508061230481612eeb565b9150506122a2565b60005b600654811015610c4a5760006006828154811061232e5761232e612dfa565b60009182526020808320909101543383526003825260408084206001600160a01b03909216808552919092529120549091508015612396573360008181526003602090815260408083206001600160a01b038716845290915281205561239690839083612452565b505080806123a390612eeb565b91505061230f565b604080516001600160a01b038416602482015260448082018490528251808303909101815260649091019091526020810180516001600160e01b031663a9059cbb60e01b1790526123fd9084906125cb565b505050565b600080546001600160a01b038381166001600160a01b0319831681178455604051919092169283917f8be0079c531659141344cd1fd0a4f28419497f9722a3daafe3b4186f6b6457e09190a35050565b6040516370a0823160e01b81523060048201526000906001600160a01b038516906370a0823190602401602060405180830381865afa158015612499573d6000803e3d6000fd5b505050506040513d601f19601f820116820180604052508101906124bd9190612f2a565b905060008183106124ce57816124d0565b825b600b549091506001600160a01b03166124f5576124ee8585836126a0565b5050505050565b60006125126127106118e1600c548561259e90919063ffffffff16565b9050600061252083836125bf565b9050838111156125725760405162461bcd60e51b815260206004820152601b60248201527f496e73756666696369656e74207265776172642062616c616e6365000000000060448201526064016108a9565b61257d8787836126a0565b600b546125959088906001600160a01b0316846126a0565b50505050505050565b60006125aa8284613049565b90505b92915050565b60006125aa8284613021565b60006125aa8284612f17565b6000612620826040518060400160405280602081526020017f5361666545524332303a206c6f772d6c6576656c2063616c6c206661696c6564815250856001600160a01b03166128aa9092919063ffffffff16565b90508051600014806126415750808060200190518101906126419190613060565b6123fd5760405162461bcd60e51b815260206004820152602a60248201527f5361666545524332303a204552433230206f7065726174696f6e20646964206e6044820152691bdd081cdd58d8d9595960b21b60648201526084016108a9565b826001600160a01b03163b6000036126fa5760405162461bcd60e51b815260206004820152601960248201527f746f6b656e206164647265737320686173206e6f20636f64650000000000000060448201526064016108a9565b8060000361270757505050565b60005b600a5481101561275e57600a818154811061272757612727612dfa565b6000918252602090912001546001600160a01b039081169085160361274c5750505050565b8061275681612eeb565b91505061270a565b506040516001600160a01b03838116602483015260448201839052600091829186169060640160408051601f198184030181529181526020820180516001600160e01b031663a9059cbb60e01b179052516127b99190613082565b6000604051808303816000865af19150503d80600081146127f6576040519150601f19603f3d011682016040523d82523d6000602084013e6127fb565b606091505b5091509150816128415760405162461bcd60e51b81526020600482015260116024820152701d1c985b9cd9995c881c995d995c9d1959607a1b60448201526064016108a9565b8051158061285e57508080602001905181019061285e9190613060565b6124ee5760405162461bcd60e51b815260206004820152601760248201527f7472616e736665722072657475726e65642066616c736500000000000000000060448201526064016108a9565b60606128b984846000856128c1565b949350505050565b6060824710156129225760405162461bcd60e51b815260206004820152602660248201527f416464726573733a20696e73756666696369656e742062616c616e636520666f6044820152651c8818d85b1b60d21b60648201526084016108a9565b600080866001600160a01b0316858760405161293e9190613082565b60006040518083038185875af1925050503d806000811461297b576040519150601f19603f3d011682016040523d82523d6000602084013e612980565b606091505b50915091506129918783838761299c565b979650505050505050565b60608315612a0b578251600003612a04576001600160a01b0385163b612a045760405162461bcd60e51b815260206004820152601d60248201527f416464726573733a2063616c6c20746f206e6f6e2d636f6e747261637400000060448201526064016108a9565b50816128b9565b6128b98383815115612a205781518083602001fd5b8060405162461bcd60e51b81526004016108a9919061309e565b6040518060a0016040528060006001600160a01b031681526020016060815260200160608152602001600060ff168152602001600081525090565b828054828255906000526020600020908101928215612ac8579160200282015b82811115612ac85781546001600160a01b0319166001600160a01b03843516178255602090920191600190910190612a95565b50612ad4929150612ad8565b5090565b5b80821115612ad45760008155600101612ad9565b60005b83811015612b08578181015183820152602001612af0565b50506000910152565b60008151808452612b29816020860160208601612aed565b601f01601f19169290920160200192915050565b60006020808301818452808551808352604092508286019150828160051b87010184880160005b83811015612be257888303603f19018552815180516001600160a01b031684528781015160a089860181905290612b9d82870182612b11565b9150508782015185820389870152612bb58282612b11565b60608481015160ff1690880152608093840151939096019290925250509386019390860190600101612b64565b509098975050505050505050565b80356001600160a01b0381168114612c0757600080fd5b919050565b60008060408385031215612c1f57600080fd5b612c2883612bf0565b946020939093013593505050565b600060208284031215612c4857600080fd5b5035919050565b60008083601f840112612c6157600080fd5b50813567ffffffffffffffff811115612c7957600080fd5b6020830191508360208260051b8501011115612c9457600080fd5b9250929050565b60008060208385031215612cae57600080fd5b823567ffffffffffffffff811115612cc557600080fd5b612cd185828601612c4f565b90969095509350505050565b60008060008060408587031215612cf357600080fd5b843567ffffffffffffffff80821115612d0b57600080fd5b612d1788838901612c4f565b90965094506020870135915080821115612d3057600080fd5b50612d3d87828801612c4f565b95989497509550505050565b600060208284031215612d5b57600080fd5b6125aa82612bf0565b60008060408385031215612d7757600080fd5b612d8083612bf0565b9150612d8e60208401612bf0565b90509250929050565b6020808252825182820181905260009190848201906040850190845b81811015612dd85783516001600160a01b031683529284019291840191600101612db3565b50909695505050505050565b634e487b7160e01b600052604160045260246000fd5b634e487b7160e01b600052603260045260246000fd5b600060208284031215612e2257600080fd5b815160ff8116811461107f57600080fd5b600060208284031215612e4557600080fd5b815167ffffffffffffffff80821115612e5d57600080fd5b818401915084601f830112612e7157600080fd5b815181811115612e8357612e83612de4565b604051601f8201601f19908116603f01168101908382118183101715612eab57612eab612de4565b81604052828152876020848701011115612ec457600080fd5b612991836020830160208801612aed565b634e487b7160e01b600052601160045260246000fd5b600060018201612efd57612efd612ed5565b5060010190565b808201808211156125ad576125ad612ed5565b818103818111156125ad576125ad612ed5565b600060208284031215612f3c57600080fd5b5051919050565b8183526000602080850194508260005b85811015612f7f576001600160a01b03612f6c83612bf0565b1687529582019590820190600101612f53565b509495945050505050565b6020815260006128b9602083018486612f43565b81835260006001600160fb1b03831115612fb757600080fd5b8260051b80836020870137939093016020019392505050565b604081526000612fe4604083018688612f43565b8281036020840152612991818587612f9e565b6020815260006128b9602083018486612f9e565b634e487b7160e01b600052601260045260246000fd5b6000826130305761303061300b565b500490565b6000826130445761304461300b565b500690565b80820281158282048414176125ad576125ad612ed5565b60006020828403121561307257600080fd5b8151801515811461107f57600080fd5b60008251613094818460208701612aed565b9190910192915050565b6020815260006125aa6020830184612b1156fea264697066735822122015321c6f0d0c7aae39174417fc5ca4b5424d5e32cdd8878d148c2ef083b90b6764736f6c63430008130033",
    "sourcePath": "e:/work/Mozaic/GIT version/moz-staking/contracts/xMozStaking.sol",
    "compiler": {
        "name": "solc",
        "version": "0.8.19+commit.7dd6d404"
    },
    "functionHashes": {
        "BP_DENOMINATOR()": "abe685cd",
        "MAX_FEE()": "bc063e1a",
        "MAX_REWARD_LENGTH()": "a129e9d2",
        "accUnitPerShare(address)": "686eb69c",
        "accumulatedRewardAmounts(address,address)": "911d823a",
        "addRewardToken(address,uint256)": "0e3802e9",
        "balanceOf(address)": "70a08231",
        "claimReward()": "b88a802f",
        "claimRewardForToken(address)": "7f3b4592",
        "getClaimableAmounts(address)": "d62a853a",
        "getRewardAmounts()": "ee7da6ca",
        "getRewardAmountsPerWeek()": "03b7ce70",
        "getRewardTokens()": "c4f59f9b",
        "lastAccUnitPerShare(address,address)": "6a019952",
        "lastStakedTime(address)": "c57a202c",
        "lastUpdateTime()": "c8f33c91",
        "owner()": "8da5cb5b",
        "renounceOwnership()": "715018a6",
        "rewardAmountsPerWeek(address)": "f49538e5",
        "rewardTokens(uint256)": "7bb7bed1",
        "setFee(uint256)": "69fe0e2d",
        "setRewardConfig(address[],uint256[])": "4850f5e9",
        "setSkippedTokens(address[])": "4505b424",
        "setTreasury(address)": "f0f44260",
        "skippedTokens(uint256)": "5008683b",
        "stake(uint256)": "a694fc3a",
        "stakingInfo(address)": "94eecb50",
        "totalStakedAmount()": "567e98f9",
        "transferOwnership(address)": "f2fde38b",
        "treasury()": "61d027b3",
        "treasuryFeeBP()": "0d7fcd1a",
        "unstake(uint256)": "2e17de78",
        "updateRewardAmountPerweek(uint256[])": "4d25f57e",
        "withdraw()": "3ccfd60b",
        "xMoz()": "4f241810"
    },
    "gasEstimates": {
        "creation": {
            "codeDepositCost": "2503800",
            "executionCost": "infinite",
            "totalCost": "infinite"
        },
        "external": {
            "BP_DENOMINATOR()": "306",
            "MAX_FEE()": "240",
            "MAX_REWARD_LENGTH()": "262",
            "accUnitPerShare(address)": "2568",
            "accumulatedRewardAmounts(address,address)": "infinite",
            "addRewardToken(address,uint256)": "infinite",
            "balanceOf(address)": "infinite",
            "claimReward()": "infinite",
            "claimRewardForToken(address)": "infinite",
            "getClaimableAmounts(address)": "infinite",
            "getRewardAmounts()": "infinite",
            "getRewardAmountsPerWeek()": "infinite",
            "getRewardTokens()": "infinite",
            "lastAccUnitPerShare(address,address)": "infinite",
            "lastStakedTime(address)": "2612",
            "lastUpdateTime()": "2406",
            "owner()": "2421",
            "renounceOwnership()": "infinite",
            "rewardAmountsPerWeek(address)": "2655",
            "rewardTokens(uint256)": "4660",
            "setFee(uint256)": "25658",
            "setRewardConfig(address[],uint256[])": "infinite",
            "setSkippedTokens(address[])": "infinite",
            "setTreasury(address)": "27927",
            "skippedTokens(uint256)": "4682",
            "stake(uint256)": "infinite",
            "stakingInfo(address)": "2568",
            "totalStakedAmount()": "2385",
            "transferOwnership(address)": "28447",
            "treasury()": "2449",
            "treasuryFeeBP()": "2364",
            "unstake(uint256)": "infinite",
            "updateRewardAmountPerweek(uint256[])": "infinite",
            "withdraw()": "infinite",
            "xMoz()": "infinite"
        },
        "internal": {
            "_safeTransfer(address,address,uint256)": "infinite",
            "accumulateReward()": "infinite",
            "distributeReward()": "infinite",
            "initialize(uint256)": "infinite",
            "safeRewardTransfer(address,address,uint256)": "infinite",
            "synchronizeXMozBalance(address)": "infinite",
            "update()": "infinite",
            "updateLastAccUnitPerShare()": "infinite"
        }
    }
}